:100000000C942A000C943F000C943F000C943F0089
:100010000C943F000C943F000C943F000C943F0064
:100020000C943F000C943F000C943F000C943F0054
:100030000C943F000C943F000C943F000C943F0044
:100040000C943F000C943F000C943F000C943F0034
:100050000C943F0011241FBECFE5D8E0DEBFCDBF1A
:1000600010E0A0E6B0E0E8E2F3E002C005900D92F7
:10007000A837B107D9F70E9469010C9492010C943A
:10008000000080E487B987E086B9379A0895379AE7
:1000900008953798089597B1907F982B97B93D9818
:1000A000369A349BFECF24B145B1942F80E030E0E6
:1000B000282B392BC90108951ABA17BA14BA11BAE4
:1000C0008BB38BBB88B388BB85B385BB82B382BB44
:1000D0000895DB01803210F080E00895E82FE69566
:1000E000E695E695F0E0EE0FFF1FE059FF4F019017
:1000F000F081E02D2081482F477030E081E090E0D2
:10010000042E02C0880F991F0A94E2F7282339238E
:1001100002C0359527954A95E2F72C9381E0089522
:10012000803210F080E00895382F377086958695DC
:100130008695E82FF0E06623A1F4EE0FFF1FE05A4A
:10014000FF4F0190F081E02D208181E090E002C01E
:10015000880F991F3A95E2F780958223808381E08A
:100160000895EE0FFF1FE05AFF4F0190F081E02D40
:10017000208181E090E002C0880F991F3A95E2F754
:10018000282B208381E00895DB01843010F080E08B
:100190000895E82FF0E0EE0FFF1FE059FF4F0190A8
:1001A000F081E02D80818C9381E00895DB01843023
:1001B00010F080E00895E82FF0E0EE0FFF1FE05A06
:1001C000FF4F0190F081E02D8C91808381E00895B4
:1001D0008032F8F4E82FE695E695E695F0E0EE0F2C
:1001E000FF1FE859FF4F0190F081E02D3081282F4B
:1001F000277081E090E0022E02C0880F991F0A94B8
:10020000E2F78095832301C0660F2A95EAF7862BD3
:10021000808380E00895843050F4E82FF0E0EE0F02
:10022000FF1FE859FF4F0190F081E02D608380E0CF
:100230000895DB018032F8F4869586958695482FDF
:1002400050E0FA01EE0FFF1FE859FF4F0190F081D7
:10025000E02D808190E021E030E0042E02C0220FEA
:10026000331F0A94E2F78223932302C09595879562
:100270004A95E2F78C9380E00895DB01843010F01A
:1002800080E00895E82FF0E0EE0FFF1FE859FF4FE0
:100290000190F081E02D80818C9381E0089588E1C8
:1002A0008AB986E880BD10B889E189B908955D9B57
:1002B000FECF8CB90895FC0104C05D9BFECF319642
:1002C0008CB980818823C9F708955F9BFECF8CB1DC
:1002D00008951F930E945C000E9441000E944F01FC
:1002E00084EF91E0A0E0B0E004C000000197A10914
:1002F000B1090097A105B105C1F70E9465018337D7
:1003000061F480E00E944B00192F0E945701812F59
:100310000E94570185E60E94570184EF91E0A0E01A
:08032000B0E0E3CFF894FFCF39
:100328003B003800350032003A0037003400310015
:080338003900360033003000EB
:00000001FF
