:100000000C942A000C9447000C9447000C94470071
:100010000C9447000C9447000C9447000C94470044
:100020000C9447000C9447000C9447000C947E01FC
:100030000C9447000C9447000C9447000C94470024
:100040000C9447000C9447000C9447000C94470014
:100050000C94470011241FBECFE5D8E0DEBFCDBF12
:1000600010E0A0E6B0E0E8E8F4E002C005900D92F0
:10007000A837B107D9F710E0A8E7B0E001C01D929A
:10008000AF37B107E1F70E94E2010C9442020C94F1
:10009000000080EC87B987E086B9379A0895379ACF
:1000A00008953798089597B1907F982B97B93D9808
:1000B000369A349BFECF24B145B1942F80E030E0D6
:1000C000282B392BC90108951ABA17BA81E084BBCD
:1000D00011BA8BB38BBB88B388BBA89882B382BBA1
:1000E0000895DB01803210F080E00895E82FE69556
:1000F000E695E695F0E0EE0FFF1FE059FF4F019007
:10010000F081E02D2081482F477030E081E090E0C1
:10011000042E02C0880F991F0A94E2F7282339237E
:1001200002C0359527954A95E2F72C9381E0089512
:10013000803210F080E00895382F377086958695CC
:100140008695E82FF0E06623A1F4EE0FFF1FE05A3A
:10015000FF4F0190F081E02D208181E090E002C00E
:10016000880F991F3A95E2F780958223808381E07A
:100170000895EE0FFF1FE05AFF4F0190F081E02D30
:10018000208181E090E002C0880F991F3A95E2F744
:10019000282B208381E00895DB01843010F080E07B
:1001A0000895E82FF0E0EE0FFF1FE059FF4F019098
:1001B000F081E02D80818C9381E00895DB01843013
:1001C00010F080E00895E82FF0E0EE0FFF1FE05AF6
:1001D000FF4F0190F081E02D8C91808381E00895A4
:1001E0008032F8F4E82FE695E695E695F0E0EE0F1C
:1001F000FF1FE859FF4F0190F081E02D3081282F3B
:10020000277081E090E0022E02C0880F991F0A94A7
:10021000E2F78095832301C0660F2A95EAF7862BC3
:10022000808380E00895843050F4E82FF0E0EE0FF2
:10023000FF1FE859FF4F0190F081E02D608380E0BF
:100240000895DB018032F8F4869586958695482FCF
:1002500050E0FA01EE0FFF1FE859FF4F0190F081C7
:10026000E02D808190E021E030E0042E02C0220FDA
:10027000331F0A94E2F78223932302C09595879552
:100280004A95E2F78C9380E00895DB01843010F00A
:1002900080E00895E82FF0E0EE0FFF1FE859FF4FD0
:1002A0000190F081E02D80818C9381E00895482FAA
:1002B00080917800861719F48095809378003091AA
:1002C0007A0090917900892F832B842B20917800DC
:1002D000822393239423892B809378003093790091
:1002E00040937A00089583B7856083BF12BE89B7B3
:1002F00089BF089583B783BF12BE08951F920F92DE
:100300000FB60F9211242F933F934F935F936F93E8
:100310007F938F939F93AF93BF93EF93FF93E0915E
:100320007D00F0917E000995FF91EF91BF91AF9113
:100330009F918F917F916F915F914F913F912F91FD
:100340000F900FBE0F901F90189590937E00809392
:100350007D00089582B7843018F420E030E00BC0AF
:1003600020917B0030917C002F5F3F4F30937C00C9
:1003700020937B0012BEC901089510927C00109258
:100380007B00089512BE089588E18AB986E880BD91
:1003900010B889E189B908955D9BFECF8CB90895A5
:1003A000FC0104C05D9BFECF31968CB9808188230F
:1003B000C9F708955F9902C080E008958CB108954F
:1003C0008CB10895CF92DF92FF920F931F93DF932A
:1003D000CF930F92CDB7DEB719820E9464000E94BE
:1003E00049000E94C4010E947A0110E0FF2400E04D
:1003F0006E010894C11CD11C88E0B6010E947100F6
:10040000898161E00E945701813011F4112311F0BC
:1004100010E0F2CF80E161E00E9498000E94730139
:100420008DE60E94CC010E94DA01833731F480E02E
:100430000E945300F82E092F02C0823749F48F2DF5
:100440000E94CC01802F0E94CC0185E60E94CC0145
:100450000E94AA01805D974031F70E94C2010E946C
:10046000BD010E947A0180E160E00E94980080E274
:100470000E94CC0180E20E94CC0184E70E94CC0162
:0804800011E0BACFF894FFCFA0
:100488003B003800350032003A00370034003100B4
:0804980039003600330030008A
:00000001FF
